{
  "_format": "hh-sol-artifact-1",
  "contractName": "BGColor",
  "sourceName": "contracts/BGColor.sol",
  "abi": [
    {
      "inputs": [
        {
          "internalType": "string",
          "name": "_color",
          "type": "string"
        }
      ],
      "stateMutability": "nonpayable",
      "type": "constructor"
    },
    {
      "anonymous": false,
      "inputs": [
        {
          "indexed": false,
          "internalType": "string",
          "name": "newColor",
          "type": "string"
        }
      ],
      "name": "colorHasChanged",
      "type": "event"
    },
    {
      "inputs": [],
      "name": "color",
      "outputs": [
        {
          "internalType": "string",
          "name": "",
          "type": "string"
        }
      ],
      "stateMutability": "view",
      "type": "function"
    },
    {
      "inputs": [
        {
          "internalType": "string",
          "name": "_color",
          "type": "string"
        }
      ],
      "name": "setColor",
      "outputs": [],
      "stateMutability": "nonpayable",
      "type": "function"
    }
  ],
  "bytecode": "0x60806040523480156200001157600080fd5b5060405162000845380380620008458339818101604052810190620000379190620002a4565b80600090805190602001906200004f92919062000057565b50506200035a565b828054620000659062000324565b90600052602060002090601f016020900481019282620000895760008555620000d5565b82601f10620000a457805160ff1916838001178555620000d5565b82800160010185558215620000d5579182015b82811115620000d4578251825591602001919060010190620000b7565b5b509050620000e49190620000e8565b5090565b5b8082111562000103576000816000905550600101620000e9565b5090565b6000604051905090565b600080fd5b600080fd5b600080fd5b600080fd5b6000601f19601f8301169050919050565b7f4e487b7100000000000000000000000000000000000000000000000000000000600052604160045260246000fd5b620001708262000125565b810181811067ffffffffffffffff8211171562000192576200019162000136565b5b80604052505050565b6000620001a762000107565b9050620001b5828262000165565b919050565b600067ffffffffffffffff821115620001d857620001d762000136565b5b620001e38262000125565b9050602081019050919050565b60005b8381101562000210578082015181840152602081019050620001f3565b8381111562000220576000848401525b50505050565b60006200023d6200023784620001ba565b6200019b565b9050828152602081018484840111156200025c576200025b62000120565b5b62000269848285620001f0565b509392505050565b600082601f8301126200028957620002886200011b565b5b81516200029b84826020860162000226565b91505092915050565b600060208284031215620002bd57620002bc62000111565b5b600082015167ffffffffffffffff811115620002de57620002dd62000116565b5b620002ec8482850162000271565b91505092915050565b7f4e487b7100000000000000000000000000000000000000000000000000000000600052602260045260246000fd5b600060028204905060018216806200033d57607f821691505b60208210811415620003545762000353620002f5565b5b50919050565b6104db806200036a6000396000f3fe608060405234801561001057600080fd5b50600436106100365760003560e01c80639988fa691461003b578063cf08fed514610057575b600080fd5b61005560048036038101906100509190610351565b610075565b005b61005f6100c6565b60405161006c9190610422565b60405180910390f35b806000908051906020019061008b929190610154565b507f58009ac843effd1a6755416a75b0e63f0b302a85b9c9f4486cda8f901c21cc0c816040516100bb9190610422565b60405180910390a150565b600080546100d390610473565b80601f01602080910402602001604051908101604052809291908181526020018280546100ff90610473565b801561014c5780601f106101215761010080835404028352916020019161014c565b820191906000526020600020905b81548152906001019060200180831161012f57829003601f168201915b505050505081565b82805461016090610473565b90600052602060002090601f01602090048101928261018257600085556101c9565b82601f1061019b57805160ff19168380011785556101c9565b828001600101855582156101c9579182015b828111156101c85782518255916020019190600101906101ad565b5b5090506101d691906101da565b5090565b5b808211156101f35760008160009055506001016101db565b5090565b6000604051905090565b600080fd5b600080fd5b600080fd5b600080fd5b6000601f19601f8301169050919050565b7f4e487b7100000000000000000000000000000000000000000000000000000000600052604160045260246000fd5b61025e82610215565b810181811067ffffffffffffffff8211171561027d5761027c610226565b5b80604052505050565b60006102906101f7565b905061029c8282610255565b919050565b600067ffffffffffffffff8211156102bc576102bb610226565b5b6102c582610215565b9050602081019050919050565b82818337600083830152505050565b60006102f46102ef846102a1565b610286565b9050828152602081018484840111156103105761030f610210565b5b61031b8482856102d2565b509392505050565b600082601f8301126103385761033761020b565b5b81356103488482602086016102e1565b91505092915050565b60006020828403121561036757610366610201565b5b600082013567ffffffffffffffff81111561038557610384610206565b5b61039184828501610323565b91505092915050565b600081519050919050565b600082825260208201905092915050565b60005b838110156103d45780820151818401526020810190506103b9565b838111156103e3576000848401525b50505050565b60006103f48261039a565b6103fe81856103a5565b935061040e8185602086016103b6565b61041781610215565b840191505092915050565b6000602082019050818103600083015261043c81846103e9565b905092915050565b7f4e487b7100000000000000000000000000000000000000000000000000000000600052602260045260246000fd5b6000600282049050600182168061048b57607f821691505b6020821081141561049f5761049e610444565b5b5091905056fea26469706673582212203c9e5c989d84e9c6a972777eea1641875ec49d0367d46a16d9234f08e98af4f164736f6c63430008090033",
  "linkReferences": {},
  "deployedLinkReferences": {}
}