{
  "_format": "hh-sol-artifact-1",
  "contractName": "BGColor",
  "sourceName": "contracts/BGColor.sol",
  "abi": [
    {
      "inputs": [],
      "stateMutability": "nonpayable",
      "type": "constructor"
    },
    {
      "anonymous": false,
      "inputs": [
        {
          "indexed": false,
          "internalType": "string",
          "name": "newColor",
          "type": "string"
        }
      ],
      "name": "colorHasChanged",
      "type": "event"
    },
    {
      "inputs": [],
      "name": "color",
      "outputs": [
        {
          "internalType": "string",
          "name": "",
          "type": "string"
        }
      ],
      "stateMutability": "view",
      "type": "function"
    },
    {
      "inputs": [
        {
          "internalType": "string",
          "name": "_color",
          "type": "string"
        }
      ],
      "name": "setColor",
      "outputs": [],
      "stateMutability": "nonpayable",
      "type": "function"
    }
  ],
  "bytecode": "0x608060405234801561001057600080fd5b506040518060400160405280600781526020017f23666666666666000000000000000000000000000000000000000000000000008152506000908051906020019061005c929190610062565b50610166565b82805461006e90610134565b90600052602060002090601f01602090048101928261009057600085556100d7565b82601f106100a957805160ff19168380011785556100d7565b828001600101855582156100d7579182015b828111156100d65782518255916020019190600101906100bb565b5b5090506100e491906100e8565b5090565b5b808211156101015760008160009055506001016100e9565b5090565b7f4e487b7100000000000000000000000000000000000000000000000000000000600052602260045260246000fd5b6000600282049050600182168061014c57607f821691505b602082108114156101605761015f610105565b5b50919050565b6104db806101756000396000f3fe608060405234801561001057600080fd5b50600436106100365760003560e01c80639988fa691461003b578063cf08fed514610057575b600080fd5b61005560048036038101906100509190610351565b610075565b005b61005f6100c6565b60405161006c9190610422565b60405180910390f35b806000908051906020019061008b929190610154565b507f58009ac843effd1a6755416a75b0e63f0b302a85b9c9f4486cda8f901c21cc0c816040516100bb9190610422565b60405180910390a150565b600080546100d390610473565b80601f01602080910402602001604051908101604052809291908181526020018280546100ff90610473565b801561014c5780601f106101215761010080835404028352916020019161014c565b820191906000526020600020905b81548152906001019060200180831161012f57829003601f168201915b505050505081565b82805461016090610473565b90600052602060002090601f01602090048101928261018257600085556101c9565b82601f1061019b57805160ff19168380011785556101c9565b828001600101855582156101c9579182015b828111156101c85782518255916020019190600101906101ad565b5b5090506101d691906101da565b5090565b5b808211156101f35760008160009055506001016101db565b5090565b6000604051905090565b600080fd5b600080fd5b600080fd5b600080fd5b6000601f19601f8301169050919050565b7f4e487b7100000000000000000000000000000000000000000000000000000000600052604160045260246000fd5b61025e82610215565b810181811067ffffffffffffffff8211171561027d5761027c610226565b5b80604052505050565b60006102906101f7565b905061029c8282610255565b919050565b600067ffffffffffffffff8211156102bc576102bb610226565b5b6102c582610215565b9050602081019050919050565b82818337600083830152505050565b60006102f46102ef846102a1565b610286565b9050828152602081018484840111156103105761030f610210565b5b61031b8482856102d2565b509392505050565b600082601f8301126103385761033761020b565b5b81356103488482602086016102e1565b91505092915050565b60006020828403121561036757610366610201565b5b600082013567ffffffffffffffff81111561038557610384610206565b5b61039184828501610323565b91505092915050565b600081519050919050565b600082825260208201905092915050565b60005b838110156103d45780820151818401526020810190506103b9565b838111156103e3576000848401525b50505050565b60006103f48261039a565b6103fe81856103a5565b935061040e8185602086016103b6565b61041781610215565b840191505092915050565b6000602082019050818103600083015261043c81846103e9565b905092915050565b7f4e487b7100000000000000000000000000000000000000000000000000000000600052602260045260246000fd5b6000600282049050600182168061048b57607f821691505b6020821081141561049f5761049e610444565b5b5091905056fea2646970667358221220f8fbccca86c7823d35ba47897f34e0e52d8b51d126904d4a32b8d3fe27379ace64736f6c63430008090033",
  "linkReferences": {},
  "deployedLinkReferences": {}
}